:020000040000FA
:100000008B01013062001A288B10A800030EA90092
:10001000241186182415A40CA30CAA16A20B1528CB
:100020000B30A200BB152308A500290E8300A80EE3
:10003000280E0900FF309F0085018601FF30650012
:10004000660020308400483C8001840AFF3E031D86
:100050002428863084001830AB000B30A20000301A
:10006000D321001080143230D321E830A021033096
:10007000A021E630A021E630A021E630A021E93021
:10008000A021C221C221AD00C221553C031D4E2832
:1000900033302D02031D4E283C1558288D2103199D
:1000A0005728013C031D59283C148D210319BC1409
:1000B000BB17E830A0210330A021E630A021F330A7
:1000C000A021C830A021F430A0217D21E930A02159
:1000D00003180028FA3C031D0028C2210318002839
:1000E0006039203C031D00283B1A8128C2210318D7
:1000F0007F28BB1A8128C2210318802881283B163B
:10010000BB160330A100BB1BA10AAE010008060606
:100110000439BC1D0319942880199028BC15942813
:100120003B13FF30650066008B170B16BB1DAC2818
:10013000BB112E083D3E84002508800086308400D7
:10014000AE0AA10B0D290330A100BB1BA10AAE0111
:100150003B141830AB000D293B1CC7283B10BB14C7
:10016000B10101303D1AFF30BE08031DB1003E0849
:100170003D1A003C2F070318FF30AF00B300B30750
:10018000031CB307031C0D29FF30B3000D29BB1C52
:10019000E228BB103B15B2010130BD1AFF30BF0889
:1001A000031DB2003F08BD1A003C30070318FF30A2
:1001B000B000B500B507031CB507031C0D29FF30BF
:1001C000B5000D293B1D0D293B113D0DAD00AD0DB9
:1001D0002D091C39AD001C3C031D7D213B1F0D2941
:1001E0000008E3392D048000BB1F0D293C1DFF28AA
:1001F0003D1B80123D1F80163C12BD1B3C16400863
:10020000BC1C0C29C01A8012C01E80163C12401A59
:100210003C160F39C019F038C107811F96282E30BF
:1002200081026400AC0B2629AB0B26291830AB00E9
:100230000B122108BB1BFF3E033C031D252922088E
:100240000B3C031D2529061866280B163308B40736
:10025000031C3529AF0803193529AF033108B7024C
:10026000370C013937060339B9003508B607031CC6
:100270004429B00803194429B0033208B807380CE0
:10028000013938060339BA00BC195329051A532914
:1002900084030008840A1039031953290230C2006C
:1002A00000178017C101C108031967290130C11F58
:1002B000003CC107C207420C01394206AD000008EC
:1002C0003F392D184038AD1880383B1B8000031093
:1002D000390D390739073A043C1E1038C0383B1B2A
:1002E0006500AA0B96280B12AA08031D7B290B3068
:1002F000A200AA1681280B1696283B1B08000509A8
:100300000F390319061D08003B170330B900BA0066
:100310000230B700B800C2000800F330A021C83096
:10032000A021F330A02164303C18C830A021F33064
:10033000A0215030A021F230A021C221043C0800AD
:100340008B01AD00A600A701A70900106430DC21D5
:100350000830A0000130AD0C0318A706A00BAB2994
:100360000B30A0000014801064000618B529A70CFB
:10037000A60C031C801003188014061CBD29A00BBA
:10038000B4298B018B170B162830A0006400643051
:10039000DC21BB1DCF29BB11250803100800A00BD1
:1003A000C62903140800A0006400F930FF3E031DB5
:1003B000D629A00BD4290800FF3E031DDC29080024
:1003C000AD007F3066000930A0006400061BE529FF
:1003D0007F300314AD0D0318FF3066006400061F64
:0803E000EE29A00BE52908003D
:02400E005C3F15
:00000001FF
